:100000000C9453200C947B200C947B200C947B202C
:100010000C947B200C947B200C947B200C947B20F4
:100020000C947B200C947B200C947B200C947B20E4
:100030000C947B200C947B200C947B200C947B20D4
:100040000C94F5230C947B200C94C3230C949D23D7
:100050000C947B200C943F240C947B200C947B20EC
:100060000C947B200C947B20FFFFFFFFFFFFFFFF22
:10007000FFFFFFFFFFFFFFFFFFFFFFFFFFFFFFFF90
:10008000FFFFFFFFFFFFFFFFFFFFFFFFFFFFFFFF80
:10009000FFFFFFFFFFFFFFFFFFFFFFFFFFFFFFFF70
:1000A000FFFFFFFFFFFFFFFFFFFFFFFFFFFFFFFF60
:1000B000FFFFFFFFFFFFFFFFFFFFFFFFFFFFFFFF50
:1000C000FFFFFFFFFFFFFFFFFFFFFFFFFFFFFFFF40
:1000D000FFFFFFFFFFFFFFFFFFFFFFFFFFFFFFFF30
:1000E000FFFFFFFFFFFFFFFFFFFFFFFFFFFFFFFF20
:1000F000FFFFFFFFFFFFFFFFFFFFFFFFFFFFFFFF10
:10010000FFFFFFFFFFFFFFFFFFFFFFFFFFFFFFFFFF
:10011000FFFFFFFFFFFFFFFFFFFFFFFFFFFFFFFFEF
:10012000FFFFFFFFFFFFFFFFFFFFFFFFFFFFFFFFDF
:10013000FFFFFFFFFFFFFFFFFFFFFFFFFFFFFFFFCF
:10014000FFFFFFFFFFFFFFFFFFFFFFFFFFFFFFFFBF
:10015000FFFFFFFFFFFFFFFFFFFFFFFFFFFFFFFFAF
:10016000FFFFFFFFFFFFFFFFFFFFFEFEFDFDFDFCAA
:10017000FCFBFBFAFAF9F9F8F8F7F7F6F6F6F5F5FD
:10018000F4F4F3F3F3F2F2F1F1F0F0F0EFEFEEEE5E
:10019000EEEDEDECECECEBEBEAEAEAE9E9E9E8E8B4
:1001A000E7E7E7E6E6E6E5E5E5E4E4E4E3E3E2E203
:1001B000E2E1E1E1E0E0E0DFDFDFDEDEDEDDDDDD4C
:1001C000DCDCDCDCDBDBDBDADADAD9D9D9D8D8D88D
:1001D000D8D7D7D7D6D6D6D5D5D5D5D4D4D4D3D3CA
:1001E000D3D3D2D2D2D2D1D1D1D0D0D0D0CFCFCF01
:1001F000CFCECECECECDCDCDCCCCCCCCCBCBCBCB35
:10020000CACACACACAC9C9C9C9C8C8C8C8C7C7C763
:10021000C7C6C6C6C6C5C5C5C5C5C4C4C4C4C3C390
:10022000C3C3C3C2C2C2C2C1C1C1C1C1C0C0C0C0B8
:10023000C0BFBFBFBFBFBEBEBEBEBDBDBDBDBDBCDE
:10024000BCBCBCBCBBBBBBBBBBBBBABABABABAB901
:10025000B9B9B9B9B8B8B8B8B8B8B7B7B7B7B7B621
:10026000B6B6B6B6B6B5B5B5B5B5B4B4B4B4B4B43F
:10027000B3B3B3B3B3B3B2B2B2B2B2B2B1B1B1B15C
:10028000B1B1B0B0B0B0B0B0AFAFAFAFAFAFAEAE76
:10029000AEAEAEAEAEADADADADADADACACACACAC8E
:1002A000ACACABABABABABABAAAAAAAAAAAAAAA9A5
:1002B000A9A9A9A9A9A9A8A8A8A8A8A8A8A7A7A7BB
:1002C000A7A7A7A7A6A6A6A6A6A6A6A6A5A5A5A5CE
:1002D000A5A5A5A4A4A4A4A4A4A4A4A3A3A3A3A3E0
:1002E000A3A3A3A2A2A2A2A2A2A2A1A1A1A1A1A1F1
:1002F000A1A1A0A0A0A0A0A0A0A0A09F9F9F9F9F01
:100300009F9F9F9E9E9E9E9E9E9E9E9E9D9D9D9D0E
:100310009D9D9D9D9C9C9C9C9C9C9C9C9C9B9B9B1C
:100320009B9B9B9B9B9B9A9A9A9A9A9A9A9A9A9928
:100330009999999999999999999898989898989834
:10034000989897979797979797979797969696963F
:100350009696969696969595959595959595959547
:100360009494949494949494949493939393939353
:100370009393939393929292929292929292929258
:100380009191919191919191919191909090909062
:100390009090909090908F8F8F8F8F8F8F8F8F8F67
:1003A0008F8E8E8E8E8E8E8E8E8E8E8E8E8D8D8D6F
:1003B0008D8D8D8D8D8D8D8D8D8C8C8C8C8C8C8C74
:1003C0008C8C8C8C8C8B8B8B8B8B8B8B8B8B8B8B78
:1003D0008B8B8A8A8A8A8A8A8A8A8A8A8A8A89897D
:1003E0008989898989898989898989898888888881
:1003F0008888888888888888888787878787878784
:100400008787878787878686868686868686868686
:100410008686868685858585858585858585858588
:100420008585858484848484848484848484848489
:10043000848383838383838383838383838383838B
:10044000828282828282828282828282828282818D
:10045000818181818181818181818181818181808D
:100460008080808080808080808080808080807F8D
:100470007F7F7F7F7F7F7F7F7F7F7F7F7F7F7F7E8D
:100480007E7E7E7E7E7E7E7E7E7E7E7E7E7E7E7E8C
:100490007D7D7D7D7D7D7D7D7D7D7D7D7D7D7D7D8C
:1004A0007D7C7C7C7C7C7C7C7C7C7C7C7C7C7C7C8B
:1004B0007C7C7C7B7B7B7B7B7B7B7B7B7B7B7B7B89
:1004C0007B7B7B7B7B7A7A7A7A7A7A7A7A7A7A7A87
:1004D0007A7A7A7A7A7A7A79797979797979797985
:1004E0007979797979797979797978787878787882
:1004F000787878787878787878787878787877777E
:10050000777777777777777777777777777777777B
:100510007777767676767676767676767676767679
:100520007676767676767575757575757575757575
:100530007575757575757575757575747474747470
:10054000747474747474747474747474747474746B
:10055000747373737373737373737373737373736A
:100560007373737373737372727272727272727264
:10057000727272727272727272727272727171715E
:10058000717171717171717171717171717171715B
:100590007171717170707070707070707070707057
:1005A0007070707070707070707070706F6F6F6F4F
:1005B0006F6F6F6F6F6F6F6F6F6F6F6F6F6F6F6F4B
:1005C0006F6F6F6F6F6E6E6E6E6E6E6E6E6E6E6E46
:1005D0006E6E6E6E6E6E6E6E6E6E6E6E6E6E6D6D3D
:1005E0006D6D6D6D6D6D6D6D6D6D6D6D6D6D6D6D3B
:1005F0006D6D6D6D6D6D6D6D6C6C6C6C6C6C6C6C33
:100600006C6C6C6C6C6C6C6C6C6C6C6C6C6C6C6C2A
:100610006C6C6C6B6B6B6B6B6B6B6B6B6B6B6B6B27
:100620006B6B6B6B6B6B6B6B6B6B6B6B6B6B6A6A1C
:100630006A6A6A6A6A6A6A6A6A6A6A6A6A6A6A6A1A
:100640006A6A6A6A6A6A6A6A6A6A69696969696910
:10065000696969696969696969696969696969690A
:100660006969696969696968686868686868686803
:1006700068686868686868686868686868686868FA
:1006800068686868686767676767676767676767F5
:1006900067676767676767676767676767676767EA
:1006A00067676767666666666666666666666666E6
:1006B00066666666666666666666666666666666DA
:1006C00066666665656565656565656565656565D7
:1006D00065656565656565656565656565656565CA
:1006E00065656565646464646464646464646464C6
:1006F00064646464646464646464646464646464BA
:1007000064646464646363636363636363636363B4
:1007100063636363636363636363636363636363A9
:1007200063636363636363636262626262626262A1
:100730006262626262626262626262626262626299
:10074000626262626262626262626262616161618D
:100750006161616161616161616161616161616189
:100760006161616161616161616161616161616179
:100770006060606060606060606060606060606079
:100780006060606060606060606060606060606069
:100790006060606060605F5F5F5F5F5F5F5F5F5F63
:1007A0005F5F5F5F5F5F5F5F5F5F5F5F5F5F5F5F59
:1007B0005F5F5F5F5F5F5F5F5F5F5F5F5F5E5E5E4C
:1007C0005E5E5E5E5E5E5E5E5E5E5E5E5E5E5E5E49
:1007D0005E5E5E5E5E5E5E5E5E5E5E5E5E5E5E5E39
:1007E0005E5E5E5E5E5E5D5D5D5D5D5D5D5D5D5D33
:1007F0005D5D5D5D5D5D5D5D5D5D5D5D5D5D5D5D29
:100800005D5D5D5D5D5D5D5D5D5D5D5D5D5D5D5C19
:100810005C5C5C5C5C5C5C5C5C5C5C5C5C5C5C5C18
:100820005C5C5C5C5C5C5C5C5C5C5C5C5C5C5C5C08
:100830005C5C5C5C5C5C5C5C5C5C5B5B5B5B5B5BFE
:100840005B5B5B5B5B5B5B5B5B5B5B5B5B5B5B5BF8
:100850005B5B5B5B5B5B5B5B5B5B5B5B5B5B5B5BE8
:100860005B5B5B5B5B5B5B5A5A5A5A5A5A5A5A5AE1
:100870005A5A5A5A5A5A5A5A5A5A5A5A5A5A5A5AD8
:100880005A5A5A5A5A5A5A5A5A5A5A5A5A5A5A5AC8
:100890005A5A5A5A5A5959595959595959595959C3
:1008A00059595959595959595959595959595959B8
:1008B00059595959595959595959595959595959A8
:1008C00059595959595858585858585858585858A3
:1008D0005858585858585858585858585858585898
:1008E0005858585858585858585858585858585888
:1008F0005858585858585757575757575757575782
:100900005757575757575757575757575757575777
:100910005757575757575757575757575757575767
:10092000575757575757575757565656565656565E
:100930005656565656565656565656565656565657
:100940005656565656565656565656565656565647
:10095000565656565656565656565656565555553A
:100960005555555555555555555555555555555537
:100970005555555555555555555555555555555527
:100980005555555555555555555555555555555517
:100990005555555554545454545454545454545413
:1009A0005454545454545454545454545454545407
:1009B00054545454545454545454545454545454F7
:1009C00054545454545454545454545454535353EA
:1009D00053535353535353535353535353535353E7
:1009E00053535353535353535353535353535353D7
:1009F00053535353535353535353535353535353C7
:100A000053535353535353525252525252525252BF
:100A100052525252525252525252525252525252B6
:100A200052525252525252525252525252525252A6
:100A30005252525252525252525252525252525296
:100A40005252525251515151515151515151515192
:100A50005151515151515151515151515151515186
:100A60005151515151515151515151515151515176
:100A70005151515151515151515151515151515166
:100A80005151515050505050505050505050505063
:100A90005050505050505050505050505050505056
:100AA0005050505050505050505050505050505046
:100AB0005050505050505050505050505050505036
:100AC00050505050504F4F4F4F4F4F4F4F4F4F4F31
:100AD0004F4F4F4F4F4F4F4F4F4F4F4F4F4F4F4F26
:100AE0004F4F4F4F4F4F4F4F4F4F4F4F4F4F4F4F16
:100AF0004F4F4F4F4F4F4F4F4F4F4F4F4F4F4F4F06
:100B00004F4F4F4F4F4F4F4F4F4E4E4E4E4E4E4EFC
:100B10004E4E4E4E4E4E4E4E4E4E4E4E4E4E4E4EF5
:100B20004E4E4E4E4E4E4E4E4E4E4E4E4E4E4E4EE5
:100B30004E4E4E4E4E4E4E4E4E4E4E4E4E4E4E4ED5
:100B40004E4E4E4E4E4E4E4E4E4E4E4E4E4E4E4DC6
:100B50004D4D4D4D4D4D4D4D4D4D4D4D4D4D4D4DC5
:100B60004D4D4D4D4D4D4D4D4D4D4D4D4D4D4D4DB5
:100B70004D4D4D4D4D4D4D4D4D4D4D4D4D4D4D4DA5
:100B80004D4D4D4D4D4D4D4D4D4D4D4D4D4D4D4D95
:100B90004D4D4D4D4D4D4D4D4D4C4C4C4C4C4C4C8C
:100BA0004C4C4C4C4C4C4C4C4C4C4C4C4C4C4C4C85
:100BB0004C4C4C4C4C4C4C4C4C4C4C4C4C4C4C4C75
:100BC0004C4C4C4C4C4C4C4C4C4C4C4C4C4C4C4C65
:100BD0004C4C4C4C4C4C4C4C4C4C4C4C4C4C4C4C55
:100BE0004C4C4C4C4C4B4B4B4B4B4B4B4B4B4B4B50
:100BF0004B4B4B4B4B4B4B4B4B4B4B4B4B4B4B4B45
:100C00004B4B4B4B4B4B4B4B4B4B4B4B4B4B4B4B34
:100C10004B4B4B4B4B4B4B4B4B4B4B4B4B4B4B4B24
:100C20004B4B4B4B4B4B4B4B4B4B4B4B4B4B4B4B14
:100C30004B4B4B4B4B4A4A4A4A4A4A4A4A4A4A4A0F
:100C40004A4A4A4A4A4A4A4A4A4A4A4A4A4A4A4A04
:100C50004A4A4A4A4A4A4A4A4A4A4A4A4A4A4A4AF4
:100C60004A4A4A4A4A4A4A4A4A4A4A4A4A4A4A4AE4
:100C70004A4A4A4A4A4A4A4A4A4A4A4A4A4A4A4AD4
:100C80004A4A4A4A4A4A4A4A4949494949494949CC
:100C900049494949494949494949494949494949C4
:100CA00049494949494949494949494949494949B4
:100CB00049494949494949494949494949494949A4
:100CC0004949494949494949494949494949494994
:100CD0004949494949494949494949494949484886
:100CE0004848484848484848484848484848484884
:100CF0004848484848484848484848484848484874
:100D00004848484848484848484848484848484863
:100D10004848484848484848484848484848484853
:100D20004848484848484848484848484848484843
:100D3000484848484848484847474747474747473B
:100D40004747474747474747474747474747474733
:100D50004747474747474747474747474747474723
:100D60004747474747474747474747474747474713
:100D70004747474747474747474747474747474703
:100D800047474747474747474747474747474747F3
:100D900047474747474646464646464646464646EE
:100DA00046464646464646464646464646464646E3
:100DB00046464646464646464646464646464646D3
:100DC00046464646464646464646464646464646C3
:100DD00046464646464646464646464646464646B3
:100DE00046464646464646464646464646464646A3
:100DF000464646464646464545454545454545459C
:100E00004545454545454545454545454545454592
:100E10004545454545454545454545454545454582
:100E20004545454545454545454545454545454572
:100E30004545454545454545454545454545454562
:100E40004545454545454545454545454545454552
:100E50004545454545454545454545454544444445
:100E60004444444444444444444444444444444442
:100E70004444444444444444444444444444444432
:100E80004444444444444444444444444444444422
:100E90004444444444444444444444444444444412
:100EA0004444444444444444444444444444444402
:100EB00044444444444444444444444444444444F2
:100EC00044444444444444444343434343434343EA
:100ED00043434343434343434343434343434343E2
:100EE00043434343434343434343434343434343D2
:100EF00043434343434343434343434343434343C2
:100F000043434343434343434343434343434343B1
:100F100043434343434343434343434343434343A1
:100F20004343434343434343434343434343434391
:100F3000434343434343434242424242424242428A
:100F40004242424242424242424242424242424281
:100F50004242424242424242424242424242424271
:100F60004242424242424242424242424242424261
:100F70004242424242424242424242424242424251
:100F80004242424242424242424242424242424241
:100F90004242424242424242424242424242424231
:100FA0004242424242424242424242424141414125
:100FB0004141414141414141414141414141414121
:100FC0004141414141414141414141414141414111
:100FD0004141414141414141414141414141414101
:100FE00041414141414141414141414141414141F1
:100FF00041414141414141414141414141414141E1
:1010000041414141414141414141414141414141D0
:1010100041414141414141414141414141414141C0
:1010200041414141414140404040404040404040BA
:1010300040404040404040404040404040404040B0
:1010400040404040404040404040404040404040A0
:101050004040404040404040404040404040404090
:101060004040404040404040404040404040404080
:101070004040404040404040404040404040404070
:101080004040404040404040404040404040404060
:101090004040404040404040404040404040404050
:1010A0004040404040403F3F3F3F3F3F3F3F3F3F4A
:1010B0003F3F3F3F3F3F3F3F3F3F3F3F3F3F3F3F40
:1010C0003F3F3F3F3F3F3F3F3F3F3F3F3F3F3F3F30
:1010D0003F3F3F3F3F3F3F3F3F3F3F3F3F3F3F3F20
:1010E0003F3F3F3F3F3F3F3F3F3F3F3F3F3F3F3F10
:1010F0003F3F3F3F3F3F3F3F3F3F3F3F3F3F3F3F00
:101100003F3F3F3F3F3F3F3F3F3F3F3F3F3F3F3FEF
:101110003F3F3F3F3F3F3F3F3F3F3F3F3F3F3F3FDF
:101120003F3F3F3F3F3F3F3F3F3F3F3F3E3E3E3ED3
:101130003E3E3E3E3E3E3E3E3E3E3E3E3E3E3E3ECF
:101140003E3E3E3E3E3E3E3E3E3E3E3E3E3E3E3EBF
:101150003E3E3E3E3E3E3E3E3E3E3E3E3E3E3E3EAF
:101160003E3E3E3E3E3E3E3E3E3E3E3E3E3E3E3E9F
:101170003E3E3E3E3E3E3E3E3E3E3E3E3E3E3E3E8F
:101180003E3E3E3E3E3E3E3E3E3E3E3E3E3E3E3E7F
:101190003E3E3E3E3E3E3E3E3E3E3E3E3E3E3E3E6F
:1011A0003E3E3E3E3E3E3E3E3E3E3E3E3E3E3E3E5F
:1011B0003E3E3E3E3E3E3E3E3E3D3D3D3D3D3D3D56
:1011C0003D3D3D3D3D3D3D3D3D3D3D3D3D3D3D3D4F
:1011D0003D3D3D3D3D3D3D3D3D3D3D3D3D3D3D3D3F
:1011E0003D3D3D3D3D3D3D3D3D3D3D3D3D3D3D3D2F
:1011F0003D3D3D3D3D3D3D3D3D3D3D3D3D3D3D3D1F
:101200003D3D3D3D3D3D3D3D3D3D3D3D3D3D3D3D0E
:101210003D3D3D3D3D3D3D3D3D3D3D3D3D3D3D3DFE
:101220003D3D3D3D3D3D3D3D3D3D3D3D3D3D3D3DEE
:101230003D3D3D3D3D3D3D3D3D3D3D3D3D3D3D3DDE
:101240003D3D3D3D3D3D3D3D3D3D3D3D3D3C3C3CD1
:101250003C3C3C3C3C3C3C3C3C3C3C3C3C3C3C3CCE
:101260003C3C3C3C3C3C3C3C3C3C3C3C3C3C3C3CBE
:101270003C3C3C3C3C3C3C3C3C3C3C3C3C3C3C3CAE
:101280003C3C3C3C3C3C3C3C3C3C3C3C3C3C3C3C9E
:101290003C3C3C3C3C3C3C3C3C3C3C3C3C3C3C3C8E
:1012A0003C3C3C3C3C3C3C3C3C3C3C3C3C3C3C3C7E
:1012B0003C3C3C3C3C3C3C3C3C3C3C3C3C3C3C3C6E
:1012C0003C3C3C3C3C3C3C3C3C3C3C3C3C3C3C3C5E
:1012D0003C3C3C3C3C3C3C3C3C3C3C3C3C3C3C3C4E
:1012E0003C3C3C3C3C3C3C3C3B3B3B3B3B3B3B3B46
:1012F0003B3B3B3B3B3B3B3B3B3B3B3B3B3B3B3B3E
:101300003B3B3B3B3B3B3B3B3B3B3B3B3B3B3B3B2D
:101310003B3B3B3B3B3B3B3B3B3B3B3B3B3B3B3B1D
:101320003B3B3B3B3B3B3B3B3B3B3B3B3B3B3B3B0D
:101330003B3B3B3B3B3B3B3B3B3B3B3B3B3B3B3BFD
:101340003B3B3B3B3B3B3B3B3B3B3B3B3B3B3B3BED
:101350003B3B3B3B3B3B3B3B3B3B3B3B3B3B3B3BDD
:101360003B3B3B3B3B3B3B3B3B3B3B3B3B3B3B3BCD
:101370003B3B3B3B3B3B3B3B3B3B3B3B3B3B3B3BBD
:101380003B3B3B3B3B3B3B3B3B3B3B3B3A3A3A3AB1
:101390003A3A3A3A3A3A3A3A3A3A3A3A3A3A3A3AAD
:1013A0003A3A3A3A3A3A3A3A3A3A3A3A3A3A3A3A9D
:1013B0003A3A3A3A3A3A3A3A3A3A3A3A3A3A3A3A8D
:1013C0003A3A3A3A3A3A3A3A3A3A3A3A3A3A3A3A7D
:1013D0003A3A3A3A3A3A3A3A3A3A3A3A3A3A3A3A6D
:1013E0003A3A3A3A3A3A3A3A3A3A3A3A3A3A3A3A5D
:1013F0003A3A3A3A3A3A3A3A3A3A3A3A3A3A3A3A4D
:101400003A3A3A3A3A3A3A3A3A3A3A3A3A3A3A3A3C
:101410003A3A3A3A3A3A3A3A3A3A3A3A3A3A3A3A2C
:101420003A3A3A3A3A3A3A3A3A3A3A3A3A3A3A3A1C
:101430003A3A3A3A3A3A3A39393939393939393915
:10144000393939393939393939393939393939390C
:1014500039393939393939393939393939393939FC
:1014600039393939393939393939393939393939EC
:1014700039393939393939393939393939393939DC
:1014800039393939393939393939393939393939CC
:1014900039393939393939393939393939393939BC
:1014A00039393939393939393939393939393939AC
:1014B000393939393939393939393939393939399C
:1014C000393939393939393939393939393939398C
:1014D000393939393939393939393939393939397C
:1014E000393939393939393939393939393838386F
:1014F000383838383838383838383838383838386C
:10150000383838383838383838383838383838385B
:10151000383838383838383838383838383838384B
:10152000383838383838383838383838383838383B
:10153000383838383838383838383838383838382B
:10154000383838383838383838383838383838381B
:10155000383838383838383838383838383838380B
:1015600038383838383838383838383838383838FB
:1015700038383838383838383838383838383838EB
:1015800038383838383838383838383838383838DB
:1015900038383838383838383838383838383838CB
:1015A00038383838383838383838383837373737BF
:1015B00037373737373737373737373737373737BB
:1015C00037373737373737373737373737373737AB
:1015D000373737373737373737373737373737379B
:1015E000373737373737373737373737373737378B
:1015F000373737373737373737373737373737377B
:10160000373737373737373737373737373737376A
:10161000373737373737373737373737373737375A
:10162000373737373737373737373737373737374A
:10163000373737373737373737373737373737373A
:10164000373737373737373737373737373737372A
:10165000373737373737373737373737373737371A
:10166000373737373737373737373737373737370A
:101670003737373737363636363636363636363605
:1016800036363636363636363636363636363636FA
:1016900036363636363636363636363636363636EA
:1016A00036363636363636363636363636363636DA
:1016B00036363636363636363636363636363636CA
:1016C00036363636363636363636363636363636BA
:1016D00036363636363636363636363636363636AA
:1016E000363636363636363636363636363636369A
:1016F000363636363636363636363636363636368A
:101700003636363636363636363636363636363679
:101710003636363636363636363636363636363669
:101720003636363636363636363636363636363659
:101730003636363636363636363636363636363649
:10174000363636363636363636363535353535353F
:101750003535353535353535353535353535353539
:101760003535353535353535353535353535353529
:101770003535353535353535353535353535353519
:101780003535353535353535353535353535353509
:1017900035353535353535353535353535353535F9
:1017A00035353535353535353535353535353535E9
:1017B00035353535353535353535353535353535D9
:1017C00035353535353535353535353535353535C9
:1017D00035353535353535353535353535353535B9
:1017E00035353535353535353535353535353535A9
:1017F0003535353535353535353535353535353599
:101800003535353535353535353535353535353588
:101810003535353535353535353535353535353578
:10182000353535353535353535353535343434346C
:101830003434343434343434343434343434343468
:101840003434343434343434343434343434343458
:101850003434343434343434343434343434343448
:101860003434343434343434343434343434343438
:101870003434343434343434343434343434343428
:101880003434343434343434343434343434343418
:101890003434343434343434343434343434343408
:1018A00034343434343434343434343434343434F8
:1018B00034343434343434343434343434343434E8
:1018C00034343434343434343434343434343434D8
:1018D00034343434343434343434343434343434C8
:1018E00034343434343434343434343434343434B8
:1018F00034343434343434343434343434343434A8
:101900003434343434343434343434343434343497
:10191000343434343434343434343333333333338D
:101920003333333333333333333333333333333387
:101930003333333333333333333333333333333377
:101940003333333333333333333333333333333367
:101950003333333333333333333333333333333357
:101960003333333333333333333333333333333347
:101970003333333333333333333333333333333337
:101980003333333333333333333333333333333327
:101990003333333333333333333333333333333317
:1019A0003333333333333333333333333333333307
:1019B00033333333333333333333333333333333F7
:1019C00033333333333333333333333333333333E7
:1019D00033333333333333333333333333333333D7
:1019E00033333333333333333333333333333333C7
:1019F00033333333333333333333333333333333B7
:101A000033333333333333333333333333333333A6
:101A1000333333333333333232323232323232329F
:101A20003232323232323232323232323232323296
:101A30003232323232323232323232323232323286
:101A40003232323232323232323232323232323276
:101A50003232323232323232323232323232323266
:101A60003232323232323232323232323232323256
:101A70003232323232323232323232323232323246
:101A80003232323232323232323232323232323236
:101A90003232323232323232323232323232323226
:101AA0003232323232323232323232323232323216
:101AB0003232323232323232323232323232323206
:101AC00032323232323232323232323232323232F6
:101AD00032323232323232323232323232323232E6
:101AE00032323232323232323232323232323232D6
:101AF00032323232323232323232323232323232C6
:101B000032323232323232323232323232323232B5
:101B100032323232323232323232323232323232A5
:101B200032323231313131313131313131313131A2
:101B30003131313131313131313131313131313195
:101B40003131313131313131313131313131313185
:101B50003131313131313131313131313131313175
:101B60003131313131313131313131313131313165
:101EB0002F2F2F2E2E2E2E2E2E2E2E2E2E2E2E2E3F
:101EC0002E2E2E2E2E2E2E2E2E2E2E2E2E2E2E2E32
:101ED0002E2E2E2E2E2E2E2E2E2E2E2E2E2E2E2E22
:101EE0002E2E2E2E2E2E2E2E2E2E2E2E2E2E2E2E12
:101EF0002E2E2E2E2E2E2E2E2E2E2E2E2E2E2E2E02
:101F00002E2E2E2E2E2E2E2E2E2E2E2E2E2E2E2EF1
:101F10002E2E2E2E2E2E2E2E2E2E2E2E2E2E2E2EE1
:101F20002E2E2E2E2E2E2E2E2E2E2E2E2E2E2E2ED1
:101F30002E2E2E2E2E2E2E2E2E2E2E2E2E2E2E2EC1
:101F40002E2E2E2E2E2E2E2E2E2E2E2E2E2E2E2EB1
:101F50002E2E2E2E2E2E2E2E2E2E2E2E2E2E2E2EA1
:101F60002E2E2E2E2E2E2E2E2E2E2E2E2E2E2E2E91
:101F70002E2E2E2E2E2E2E2E2E2E2E2E2E2E2E2E81
:101F80002E2E2E2E2E2E2E2E2E2E2E2E2E2E2E2E71
:101F90002E2E2E2E2E2E2E2E2E2E2E2E2E2E2E2E61
:101FA0002E2E2E2E2E2E2E2E2E2E2E2E2E2E2E2E51
:101FB0002E2E2E2E2E2E2E2E2E2E2E2E2E2E2E2E41
:101FC0002E2E2E2E2E2E2E2E2E2E2E2E2E2E2E2E31
:101FD0002E2E2E2E2E2E2E2E2E2E2E2E2E2E2E2E21
:101FE0002E2E2E2E2E2E2E2E2E2E2E2E2E2E2E2E11
:101FF0002E2E2E2E2E2E2E2E2E2E2E2E2E2E2E2E01
:102000002E2E2E2E2E2E2E2E2E2E2E2E2D2D2D2DF4
:102010002D2D2D2D2D2D2D2D2D2D2D2D2D2D2D2DF0
:102020002D2D2D2D2D2D2D2D2D2D2D2D2D2D2D2DE0
:102030002D2D2D2D2D2D2D2D2D2D2D2D2D2D2D2DD0
:102040002D2D2D2D2D2D2D2D2D2D2D2D2D2D2D2DC0
:102050002D2D2D2D2D2D2D2D2D2D2D2D2D2D2D2DB0
:102060002D2D2D2D2D2D2D2D2D2D2D2D2D2D2D2DA0
:102070002D2D2D2D2D2D2D2D2D2D2D2D2D2D2D2D90
:102080002D2D2D2D2D2D2D2D2D2D2D2D2D2D2D2D80
:102090002D2D2D2D2D2D2D2D2D2D2D2D2D2D2D2D70
:1020A0002D2D2D2D2D2D2D2D2D2D2D2D2D2D2D2D60
:1020B0002D2D2D2D2D2D2D2D2D2D2D2D2D2D2D2D50
:1020C0002D2D2D2D2D2D2D2D2D2D2D2D2D2D2D2D40
:1020D0002D2D2D2D2D2D2D2D2D2D2D2D2D2D2D2D30
:1020E0002D2D2D2D2D2D2D2D2D2D2D2D2D2D2D2D20
:1020F0002D2D2D2D2D2D2D2D2D2D2D2D2D2D2D2D10
:102100002D2D2D2D2D2D2D2D2D2D2D2D2D2D2D2DFF
:102110002D2D2D2D2D2D2D2D2D2D2D2D2D2D2D2DEF
:102120002D2D2D2D2D2D2D2D2D2D2D2D2D2D2D2DDF
:102130002D2D2D2D2D2D2D2D2D2D2D2D2D2D2D2DCF
:102140002D2D2D2D2D2D2D2D2D2D2D2D2D2D2D2DBF
:102150002D2D2D2D2D2D2D2D2D2D2D2D2D2D2D2DAF
:102160002D2D2D2D2D2D2D2D2D2D2D2D2D2D2D2D9F
:102170002D2D2D2D2D2D2D2D2D2D2D2D2C2C2C2C93
:102180002C2C2C2C2C2C2C2C2C2C2C2C2C2C2C2C8F
:102190002C2C2C2C2C2C2C2C2C2C2C2C2C2C2C2C7F
:1021A0002C2C2C2C2C2C2C2C2C2C2C2C2C2C2C2C6F
:1021B0002C2C2C2C2C2C2C2C2C2C2C2C2C2C2C2C5F
:1021C0002C2C2C2C2C2C2C2C2C2C2C2C2C2C2C2C4F
:1021D0002C2C2C2C2C2C2C2C2C2C2C2C2C2C2C2C3F
:1021E0002C2C2C2C2C2C2C2C2C2C2C2C2C2C2C2C2F
:1021F0002C2C2C2C2C2C2C2C2C2C2C2C2C2C2C2C1F
:102200002C2C2C2C2C2C2C2C2C2C2C2C2C2C2C2C0E
:102210002C2C2C2C2C2C2C2C2C2C2C2C2C2C2C2CFE
:102220002C2C2C2C2C2C2C2C2C2C2C2C2C2C2C2CEE
:102230002C2C2C2C2C2C2C2C2C2C2C2C2C2C2C2CDE
:102240002C2C2C2C2C2C2C2C2C2C2C2C2C2C2C2CCE
:102250002C2C2C2C2C2C2C2C2C2C2C2C2C2C2C2CBE
:102260002C2C2C2C2C2C2C2C2C2C2C2C2C2C2C2CAE
:102270002C2C2C2C2C2C2C2C2C2C2C2C2C2C2C2C9E
:102280002C2C2C2C2C2C2C2C2C2C2C2C2C2C2C2C8E
:102290002C2C2C2C2C2C2C2C2C2C2C2C2C2C2C2C7E
:1022A0002C2C2C2C2C2C2C2C2C2C2C2C2C2C2C2C6E
:1022B0002C2C2C2C2C2C2C2C2C2C2C2C2C2C2C2C5E
:1022C0002C2C2C2C2C2C2C2C2C2C2C2C2C2C2C2C4E
:1022D0002C2C2C2C2C2C2C2C2C2C2C2C2C2C2C2C3E
:1022E0002C2C2C2C2C2C2C2C2C2C2C2C2C2C2C2C2E
:1022F0002C2C2C2C2C2C2C2C2C2C2C2C2C2C2C2C1E
:102300002C2C2C2C2C2B2B2B2B2B2B2B2B2B2B2B18
:102310002B2B2B2B2B2B2B2B2B2B2B2B2B2B2B2B0D
:102320002B2B2B2B2B2B2B2B2B2B2B2B2B2B2B2BFD
:102330002B2B2B2B2B2B2B2B2B2B2B2B2B2B2B2BED
:102340002B2B2B2B2B2B2B2B2B2B2B2B2B2B2B2BDD
:102350002B2B2B2B2B2B2B2B2B2B2B2B2B2B2B2BCD
:102360002B2B2B2B2B2B2B2B2B2B2B2B2B2B2B2BBD
:102370002B2B2B2B2B2B2B2B2B2B2B2B2B2B2B2BAD
:102380002B2B2B2B2B2B2B2B2B2B2B2B2B2B2B2B9D
:102390002B2B2B2B2B2B2B2B2B2B2B2B2B2B2B2B8D
:1023A0002B2B2B2B2B2B2B2B2B2B2B2B2B2B2B2B7D
:1023B0002B2B2B2B2B2B2B2B2B2B2B2B2B2B2B2B6D
:1023C0002B2B2B2B2B2B2B2B2B2B2B2B2B2B2B2B5D
:1023D0002B2B2B2B2B2B2B2B2B2B2B2B2B2B2B2B4D
:1023E0002B2B2B2B2B2B2B2B2B2B2B2B2B2B2B2B3D
:1023F0002B2B2B2B2B2B2B2B2B2B2B2B2B2B2B2B2D
:102400002B2B2B2B2B2B2B2B2B2B2B2B2B2B2B2B1C
:102410002B2B2B2B2B2B2B2B2B2B2B2B2B2B2B2B0C
:102420002B2B2B2B2B2B2B2B2B2B2B2B2B2B2B2BFC
:102430002B2B2B2B2B2B2B2B2B2B2B2B2B2B2B2BEC
:102440002B2B2B2B2B2B2B2B2B2B2B2B2B2B2B2BDC
:102450002B2B2B2B2B2B2B2B2B2B2B2B2B2B2B2BCC
:102460002B2B2B2B2B2B2B2B2B2B2B2B2B2B2B2BBC
:102470002B2B2B2B2B2B2B2B2B2B2B2B2B2B2B2BAC
:102480002B2B2B2B2B2B2B2B2B2B2B2B2B2B2B2B9C
:102490002B2B2B2B2B2B2B2B2B2B2B2B2B2B2B2B8C
:1024A0002B2B2B2B2B2B2B2B2B2B2B2A2A2A2A2A81
:1024B0002A2A2A2A2A2A2A2A2A2A2A2A2A2A2A2A7C
:1024C0002A2A2A2A2A2A2A2A2A2A2A2A2A2A2A2A6C
:1024D0002A2A2A2A2A2A2A2A2A2A2A2A2A2A2A2A5C
:1024E0002A2A2A2A2A2A2A2A2A2A2A2A2A2A2A2A4C
:1028500029292929292929282828282828282828F1
:1028600028282828282828282828282828282828E8
:1028700028282828282828282828282828282828D8
:1028800028282828282828282828282828282828C8
:1028900028282828282828282828282828282828B8
:1028A00028282828282828282828282828282828A8
:1028B0002828282828282828282828282828282898
:1028C0002828282828282828282828282828282888
:1028D0002828282828282828282828282828282878
:1028E0002828282828282828282828282828282868
:1028F0002828282828282828282828282828282858
:102900002828282828282828282828282828282847
:102910002828282828282828282828282828282837
:102920002828282828282828282828282828282827
:102930002828282828282828282828282828282817
:102940002828282828282828282828282828282807
:1029500028282828282828282828282828282828F7
:1029600028282828282828282828282828282828E7
:1029700028282828282828282828282828282828D7
:1029800028282828282828282828282828282828C7
:1029900028282828282828282828282828282828B7
:1029A00028282828282828282828282828282828A7
:1029B0002828282828282828282828282828282897
:1029C0002828282828282828282828282828282887
:1029D0002828282828282828282828282828282877
:1029E0002828282828282828282828282828282867
:1029F0002828282828282828282828282828282857
:102A00002828282828282828282828282828282846
:102A10002828282828282828282828282828282836
:102A20002828282828282828282828282828282826
:102A30002828282828282828282828282828282816
:102A40002828282828282828282828282828282806
:102A500028282828282828282828282828282828F6
:102A600028282827272727272727272727272727F3
:102A700027272727272727272727272727272727E6
:102A800027272727272727272727272727272727D6
:102A900027272727272727272727272727272727C6
:102AA00027272727272727272727272727272727B6
:102C900027272727272727272726262626262626CB
:102CA00026262626262626262626262626262626C4
:102CB00026262626262626262626262626262626B4
:102CC00026262626262626262626262626262626A4
:102CD0002626262626262626262626262626262694
:102EF0002626262626262626262626262525252576
:102F00002525252525252525252525252525252571
:102F10002525252525252525252525252525252561
:102F20002525252525252525252525252525252551
:102F30002525252525252525252525252525252541
:1031900025252424242424242424242424242424ED
:1031A00024242424242424242424242424242424DF
:1031B00024242424242424242424242424242424CF
:1031C00024242424242424242424242424242424BF
:1031D00024242424242424242424242424242424AF
:10346000242423232323232323232323232323232A
:10347000232323232323232323232323232323231C
:10348000232323232323232323232323232323230C
:1034900023232323232323232323232323232323FC
:1034A00023232323232323232323232323232323EC
:103AC00022222222222221212121212121212121E0
:103AD00021212121212121212121212121212121D6
:103AE00021212121212121212121212121212121C6
:103AF00021212121212121212121212121212121B6
:103B000021212121212121212121212121212121A5
:103E60002121212121212121212121212020202046
:103E70002020202020202020202020202020202042
:103E80002020202020202020202020202020202032
:103E90002020202020202020202020202020202022
:103EA0002020202020202020202020202020202012
:103EB0002020202020202020202020202020202002
:103EC00020202020202020202020202020202020F2
:103ED00020202020202020202020202020202020E2
:103EE00020202020202020202020202020202020D2
:103EF00020202020202020202020202020202020C2
:103F000020202020202020202020202020202020B1
:103F100020202020202020202020202020202020A1
:103F20002020202020202020202020202020202091
:103F30002020202020202020202020202020202081
:103F40002020202020202020202020202020202071
:103F50002020202020202020202020202020202061
:103F60002020202020202020202020202020202051
:103F70002020202020202020202020202020202041
:103F80002020202020202020202020202020202031
:103F90002020202020202020202020202020202021
:103FA0002020202020202020202020202020202011
:103FB0002020202020202020202020202020202001
:103FC00020202020202020202020202020202020F1
:103FD00020202020202020202020202020202020E1
:103FE00020202020202020202020202020202020D1
:103FF00020202020202020202020202020202020C1
:1040000020202020202020202020202020202020B0
:1040100020202020202020202020202020202020A0
:104020002020202020202020202020202020202090
:104030002020202020202020202020202020202080
:104040002020202020202020202020202020202070
:104050002020202020202020202020202020202060
:104060002020202020202020000000002500280003
:104070002B0000000000240027002A000404040490
:104080000404040402020202020203030303030302
:1040900001020408102040800102040810200102DF
:1040A00004081020232711241FBECFEFD8E0DEBF65
:1040B000CDBF21E0AEE3B1E001C01D92AA3EB20740
:1040C000E1F711E0A0E0B1E0EAEAF3E502C0059013
:1040D0000D92AE33B107D9F710E2C3E5D0E204C0C8
:1040E0002197FE010E94C829C235D107C9F70E9455
:1040F00045250C94D3290C940000CF92DF92EF92C7
:10410000FF920F931F93CF93DF936C017A018B0182
:10411000C0E0D0E0CE15DF0581F0D8016D918D01B2
:10412000D601ED91FC910190F081E02DC601099539
:10413000892B11F02196EECF7E01C701DF91CF913F
:104140001F910F91FF90EF90DF90CF900895089509
:1041500080E090E00895FC01538D448D252F30E0E0
:10416000842F90E0821B930B541710F0CF96089584
:1041700001970895FC01918D828D981761F0828DD1
:10418000DF01A80FB11D5D968C91928D9F5F9F738B
:10419000928F90E008958FEF9FEF0895FC01918D2D
:1041A000828D981731F0828DE80FF11D858D90E09A
:1041B00008958FEF9FEF08952FB7F89480914901EC
:1041C00090914A01A0914B01B0914C012FBF809377
:1041D000550190935601A0935701B09358018DE477
:1041E00091E00E94CE2097FF26C02FB7F8948091CF
:1041F000490190914A01A0914B01B0914C012FBF10
:1042000040915501509156016091570170915801AC
:10421000841B950BA60BB70B409151015091520195
:10422000609153017091540184179507A607B70751
:10423000B0F28FEF9FEF0895FC01918D228D892FB1
:1042400090E0805C9F4F821B91098F73992708959E
:104250008DE491E00E941C2121E0892B09F420E0EB
:10426000822F0895FC01848DDF01A80FB11DA35A90
:10427000BF4F2C91848D90E001968F739927848F86
:10428000A689B7892C93A089B1898C9183708064A9
:104290008C93938D848D981306C00288F389E02D4A
:1042A00080818F7D80830895EF92FF920F931F93FB
:1042B000CF93DF93EC0181E0888F9B8D8C8D9813D9
:1042C00005C0E889F989808185FD26C0F62E0B8D11
:1042D00010E00F5F1F4F0F731127E02E8C8DE81237
:1042E0000CC00FB607FCFACFE889F989808185FFF9
:1042F000F5CFCE010E943221F1CF8B8DFE01E80F68
:10430000F11DE35AFF4FF0829FB7F8940B8FEA89B3
:10431000FB89808180620AC09FB7F894EE89FF898B
:104320006083E889F98980818370806480839FBF7E
:1043300081E090E0DF91CF911F910F91FF90EF907E
:104340000895CF93DF93EC01888D8823C9F0EA8923
:10435000FB89808185FD05C0A889B9898C9186FD7E
:104360000FC00FB607FCF5CF808185FFF2CFA8897B
:10437000B9898C9185FFEDCFCE010E943221E7CF24
:10438000DF91CF91089580E090E0892B29F00E9481
:10439000282181110C9400000895CF93DF9390E0C1
:1043A000FC01E057FF4B2491FC01E458FF4B849142
:1043B000882361F190E0880F991FFC01EE58FF4BB4
:1043C000C591D491FC01E859FF4BA591B4916111BD
:1043D00009C09FB7F8948881209582238883EC9147
:1043E0002E230BC0623061F49FB7F8948881322F7E
:1043F000309583238883EC912E2B2C939FBF06C08E
:104400008FB7F894E8812E2B28838FBFDF91CF914F
:1044100008953FB7F8948091410190914201A09195
:104420004301B091440126B5A89B05C02F3F19F068
:104430000196A11DB11D3FBFBA2FA92F982F882724
:10444000820F911DA11DB11DBC01CD0142E0660F7F
:10445000771F881F991F4A95D1F708958F929F92D1
:10446000AF92BF92CF92DF92EF92FF926B017C01ED
:104470000E9409224B015C01C114D104E104F10442
:10448000F1F00E940922DC01CB0188199909AA09DF
:10449000BB09883E9340A105B10570F321E0C21A23
:1044A000D108E108F10888EE880E83E0981EA11C6F
:1044B000B11CC114D104E104F10419F7DDCFFF9060
:1044C000EF90DF90CF90BF90AF909F908F90089526
:1044D000009769F0FC0101900020E9F73197AF01E6
:1044E000481B590BBC018DE491E00C947D2080E0C9
:1044F00090E008952F923F924F925F926F927F9239
:104500008F929F92AF92BF92CF92DF92EF92FF92E3
:104510000F931F93CF93DF93CDB7DEB7A4970FB65A
:10452000F894DEBF0FBECDBF4B015C01F42E9B01A2
:10453000AC010E94A129882319F08DE191E027C0E8
:1045400024013501E89477F82FEF3FEF4FE75FE75D
:10455000C301B2010E94A12981110DC02FEF3FEFCD
:104560004FE75FE7C301B2010E94502718161CF401
:1045700081E291E00CC02FEF3FEF4FE75FE4C50110
:10458000B4010E949C2918162CF485E291E00E9447
:104590006822B8C02FEF3FEF4FE75FECC501B401D1
:1045A0000E94502787FDF1CF20E030E0A901C5012E
:1045B000B4010E94502787FF0BC06DE28DE491E0AB
:1045C0000E9454213C01B7FAB094B7F8B09402C0ED
:1045D000612C712C10E060E070E080E09FE3F11648
:1045E00041F020E030E040E251E40E94FB281F5FF0
:1045F000F6CFA50194010E948F284B015C010E9417
:104600006D296AA3C72ED82EE92E19A2262F372F7F
:10461000482F592F8E010F5D1F4F0BA31CA39AE04B
:10462000292E312C412C512CCA01B901A201910132
:104630000E94A629605DF80162938F012115310562
:104640004105510589F7CF010E9468228301080FB7
:10465000191FFF2009F455C06AA17C2D8D2D9E2DB8
:104660000E9455279B01AC01C501B4010E948E2810
:104670004B015C016EE28DE491E00E945421080F31
:10468000191F8AE0282E312C412C512C20E030E0DB
:1046900040E251E4C501B4010E94B6274B015C0120
:1046A0000E946D299B0140E050E019A2CBA0DCA044
:1046B000762E3AA3642EE52ECA01B901A20191011A
:1046C0000E94A629605DF60162936F0121153105F4
:1046D0004105510589F7CF010E946822080F191F73
:1046E000672D7AA1862D9E2D0E9455279B01AC0136
:1046F000C501B4010E948E284B015C01FA94F110AF
:10470000C5CFC801A4960FB6F894DEBF0FBECDBFCB
:10471000DF91CF911F910F91FF90EF90DF90CF909D
:10472000BF90AF909F908F907F906F905F904F90D1
:104730003F902F9008950E94CE291F920F920FB69E
:104740000F9211242F933F934F935F936F937F9317
:104750008F939F93AF93BF93EF93FF938DE491E07B
:104760000E943221FF91EF91BF91AF919F918F9164
:104770007F916F915F914F913F912F910F900FBE5D
:104780000F901F9018951F920F920FB60F92112441
:104790002F938F939F93EF93FF93E0915D01F0919F
:1047A0005E018081E0916301F091640182FD12C09D
:1047B0009081809166018F5F8F73209167018217CE
:1047C00051F0E0916601F0E0E35BFE4F958F80933E
:1047D000660101C08081FF91EF919F918F912F9190
:1047E0000F900FBE0F901F9018951F920F920FB64B
:1047F0000F9211242F933F938F939F93AF93BF9367
:104800008091490190914A01A0914B01B0914C01D6
:104810003091400123E0230F2D3720F40196A11D94
:10482000B11D05C026E8230F0296A11DB11D2093DE
:1048300040018093490190934A01A0934B01B093AA
:104840004C018091410190914201A0914301B091AE
:1048500044010196A11DB11D809341019093420135
:10486000A0934301B0934401BF91AF919F918F9169
:104870003F912F910F900FBE0F901F9018951F9290
:104880000F920FB60F9211242F933F934F935F9384
:104890006F937F938F939F93AF93BF93EF93FF9308
:1048A00080910801806480937C00B29A81E09091AD
:1048B0000801911180E080930801289A80910801F5
:1048C000811169C08091780090917900909348019E
:1048D000809347014091090150910A019A01281BD8
:1048E000390BA901032E000C660B770B8091000198
:1048F00090910101A0910201B0910301840F951FD5
:10490000A61FB71F8093000190930101A09302019D
:10491000B0930301AC01BD01EAE075956795579529
:104920004795EA95D1F7420F531F413D51058CF051
:1049300020ED30E030933F0120933E0181349140DF
:10494000A540B1050CF48FC080E491E0A5E0B0E093
:1049500019C049362FEF52072CF050933F01409376
:104960003E0181C029E63FEF30933F0120933E0195
:1049700080369947AE4FBF4F0CF075C080E699E77F
:10498000AEEFBFEF8093000190930101A09302016D
:10499000B093030168C080917800909179008F5F97
:1049A00091409093460180934501E0913E01F09142
:1049B0003F01E81BF90BCF010F2E000CAA0BBB0B1C
:1049C0004091040150910501609106017091070129
:1049D000480F591F6A1F7B1F409304015093050124
:1049E0006093060170930701BB2777FDBA95A72F47
:1049F000962F852FE80FF91FF7FF12C048315C4F43
:104A00006F4F7F4F1CF588E19CEFAFEFBFEF8093B6
:104A1000040190930501A0930601B093070116C00D
:104A2000E11520E4F207BCF041385C4260487105B2
:104A300084F080E89CE2A0E8B0E0809304019093C9
:104A40000501A0930601B093070103C0E0E0F0E088
:104A500002C0EFEFFFE3E859FF4F859194918093F7
:104A6000B3008093B4002898FF91EF91BF91AF916C
:104A70009F918F917F916F915F914F913F912F9176
:104A80000F900FBE0F901F901895789484B5826098
:104A900084BD84B5816084BD85B5826085BD85B5E2
:104AA000816085BD80916E00816080936E00109260
:104AB00081008091810082608093810080918100DB
:104AC000816080938100809180008160809380006C
:104AD0008091B10084608093B1008091B0008160CA
:104AE0008093B00080917A00846080937A008091F6
:104AF0007A00826080937A0080917A00816080934E
:104B00007A0080917A00806880937A001092C100C8
:104B1000299861E089E00E94CD2161E088E00E944F
:104B2000CD2160E080E00E94CD2160E081E00E9424
:104B3000CD2110927A0010927B0010927C0080911F
:104B40007A00816080937A0080917A008D7F8093D3
:104B50007A0080917A00846080937A0080917A0054
:104B6000806880937A0080917A00886080937A00D0
:104B700080917A00806280937A0080917B008160CE
:104B800080937B0080917B00846080937B00809188
:104B90007C00806480937C0088E390E090938B009D
:104BA00080938A0010928000109281008091810091
:104BB0008860809381008091810082608093810071
:104BC000789429988091B1008E7F8093B100809174
:104BD000B1008D7F8093B1008091B1008B7F809375
:104BE000B100239A539A8FEF8093B3008093B4005F
:104BF0008091B00080688093B0008091B0008064A4
:104C00008093B0008091B00080628093B00080916A
:104C1000B0008F7E8093B0008091B000826080935E
:104C2000B0008091B00081608093B0008091B000AE
:104C3000877F8093B0008091B10081608093B10044
:104C4000E0915D01F0915E0182E08083E091590185
:104C5000F0915A011082E0915B01F0915C018FECC0
:104C6000808310926501E0916101F091620186E01C
:104C70008083E0915F01F091600180818061808399
:104C8000E0915F01F0916001808188608083E09114
:104C90005F01F0916001808180688083E0915F0115
:104CA000F091600180818F7D80836CE370E080E013
:104CB00090E00E942E22299A8DE491E00E941C210E
:104CC000892B09F445C00E94DC20FC0197FD0BC034
:104CD0008D32910561F0C0970A9748F08DE491E01C
:104CE0000E94BA20F0CF20E030E0A9011FC0C12C03
:104CF000D12C7601C0E0E130F10509F083C08DE4EC
:104D000091E00E94BA200E94DC20FC01C0970A9723
:104D100090F3E130F10579F3CC2309F491C0222717
:104D20003327A9012C193D094E095F09AEEFB3E005
:104D30000E947428DC01CB0124E0B595A7959795D6
:104D400087952A95D1F790930A0180930901B4CFF2
:104D500060E570E080E090E00E942E2289E291E020
:104D60000E9468228FE291E00E9468228BE391E02A
:104D70000E9468226091090170910A01072E000CBF
:104D8000880B990B0E9457272FE135E84FE752E433
:104D90000E94FB2842E00E947A228DE291E00E946C
:104DA00068226091470170914801072E000C880B22
:104DB000990B0E9457272FE135E84FE752E40E94F4
:104DC000FB2842E00E947A228DE291E00E94682254
:104DD0006091450170914601072E000C880B990BDC
:104DE0000E9457272FE135E847E152E40E94FB2853
:104DF00042E00E947A228BE391E00E9468220E94A6
:104E0000C3215ACFED32F105C9F0CF01C0970A97FF
:104E100008F075CFAAE0B0E0A70196010E947428BF
:104E20006F01FF0FEE08FF08C60ED71EE81EF91E21
:104E300080E3C81AD108E108F10861CFC1E05FCF73
:104E4000A701960173CFEDE4F1E01382128288EEA0
:104E500093E0A0E0B0E084839583A683B7838FE0DE
:104E600091E09183808385EC90E09587848784EC42
:104E700090E09787868780EC90E0918B808B81EC27
:104E800090E0938B828B82EC90E0958B848B86EC08
:104E900090E0978B868B118E128E138E148E089550
:104EA0000E94922708F481E00895E89409C097FBD6
:104EB0003EF490958095709561957F4F8F4F9F4FF1
:104EC0009923A9F0F92F96E9BB279395F695879535
:104ED00077956795B795F111F8CFFAF4BB0F11F4F8
:104EE00060FF1BC06F5F7F4F8F4F9F4F16C088239F
:104EF00011F096E911C0772321F09EE8872F762FD5
:104F000005C0662371F096E8862F70E060E02AF015
:104F10009A95660F771F881FDAF7880F9695879501
:104F200097F90895990F0008550FAA0BE0E8FEEFD6
:104F300016161706E807F907C0F012161306E4075D
:104F4000F50798F0621B730B840B950B39F40A2656
:104F500061F0232B242B252B21F408950A2609F434
:104F6000A140A6958FEF811D811D08950E94C9273C
:104F70000C943A280E942C2838F00E94332820F004
:104F8000952311F00C9423280C94292811240C94B7
:104F90006E280E944B2870F3959FC1F3950F50E047
:104FA000551F629FF001729FBB27F00DB11D639FDB
:104FB000AA27F00DB11DAA1F649F6627B00DA11D81
:104FC000661F829F2227B00DA11D621F739FB00D27
:104FD000A11D621F839FA00D611D221F749F332797
:104FE000A00D611D231F849F600D211D822F762F30
:104FF0006A2F11249F5750409AF0F1F088234AF00D
:10500000EE0FFF1FBB1F661F771F881F9150504078
:10501000A9F79E3F510580F00C9423280C946E282C
:105020005F3FE4F3983ED4F3869577956795B795FF
:10503000F795E7959F5FC1F7FE2B880F911D969519
:10504000879597F9089597F99F6780E870E060E089
:1050500008959FEF80EC089500240A941616170611
:1050600018060906089500240A9412161306140659
:1050700005060895092E0394000C11F4882352F0BC
:10508000BB0F40F4BF2B11F460FF04C06F5F7F4F74
:105090008F4F9F4F089557FD9058440F551F59F05B
:1050A0005F3F71F04795880F97FB991F61F09F3F15
:1050B00079F087950895121613061406551FF2CF3E
:1050C0004695F1DF08C0161617061806991FF1CF8E
:1050D00086957105610508940895E894BB276627B5
:1050E0007727CB0197F908950E947F28A59F900DFF
:1050F000B49F900DA49F800D911D11240895A29F2F
:10510000B001B39FC001A39F700D811D1124911D9B
:10511000B29F700D811D1124911D08955058BB2719
:10512000AA270E94A6280C943A280E942C2838F01E
:105130000E94332820F039F49F3F19F426F40C9490
:1051400029280EF4E095E7FB0C942328E92F0E9410
:105150004B2858F3BA17620773078407950720F0A6
:1051600079F4A6F50C946D280EF4E0950B2EBA2F69
:10517000A02D0B01B90190010C01CA01A00111245D
:10518000FF27591B99F0593F50F4503E68F11A1609
:10519000F040A22F232F342F4427585FF3CF46959A
:1051A00037952795A795F0405395C9F77EF41F16BC
:1051B000BA0B620B730B840BBAF09150A1F0FF0F86
:1051C000BB1F661F771F881FC2F70EC0BA0F621F72
:1051D000731F841F48F4879577956795B795F79562
:1051E0009E3F08F0B0CF9395880F08F09927EE0FF7
:1051F0009795879508950E940F290C943A280E944C
:10520000332858F00E942C2840F029F45F3F29F001
:105210000C94232851110C946E280C9429280E9478
:105220004B2868F39923B1F3552391F3951B550B44
:10523000BB27AA2762177307840738F09F5F5F4F69
:10524000220F331F441FAA1FA9F335D00E2E3AF0A8
:10525000E0E832D091505040E695001CCAF72BD0C0
:10526000FE2F29D0660F771F881FBB1F2617370711
:105270004807AB07B0E809F0BB0B802DBF01FF2743
:1052800093585F4F3AF09E3F510578F00C942328D5
:105290000C946E285F3FE4F3983ED4F3869577959F
:1052A0006795B795F7959F5FC9F7880F911D9695FC
:1052B000879597F90895E1E0660F771F881FBB1F58
:1052C000621773078407BA0720F0621B730B840B05
:1052D000BA0BEE1F88F7E09508950E94532888F0D6
:1052E0009F5798F0B92F9927B751B0F0E1F0660FAA
:1052F000771F881F991F1AF0BA95C9F714C0B130EB
:1053000091F00E946D28B1E008950C946D28672FEC
:10531000782F8827B85F39F0B93FCCF38695779519
:105320006795B395D9F73EF4909580957095619502
:105330007F4F8F4F9F4F08950E94922708F48FEF61
:1053400008950E949227880B990B0895A1E21A2EC6
:10535000AA1BBB1BFD010DC0AA1FBB1FEE1FFF1F19
:10536000A217B307E407F50720F0A21BB30BE40B69
:10537000F50B661F771F881F991F1A9469F76095B0
:105380007095809590959B01AC01BD01CF0108956A
:10539000EE0FFF1F0590F491E02D099481E090E05D
:0A53A000F8940C94D329F894FFCF81
:1053AA0080380100D0010100017F01000000005493
:1053BA00217D20AB20A1211C21BA20CE206E616E56
:1053CA0000696E66006F766600567265662C005636
:0E53DA006F6C742C49626F6F7374000D0A00C3
:00000001FF
